:100000000C9479000C94A1000C94A1000C94A10014
:100010000C94A1000C94A1000C94A1000C94A100DC
:100020000C94A1000C94A1000C94A1000C94A100CC
:100030000C94A1000C94A1000C94A1000C94A100BC
:100040000C94A5020C94A1000C9415030C94EF02DF
:100050000C94A1000C94A1000C94A1000C94A1009C
:100060000C94A1000C94A100084AD73B3BCE016E32
:1000700084BCBFFDC12F3D6C74319ABD56833DDAFF
:100080003D00C77F11BED9E4BB4C3E916BAAAABE0E
:10009000000000803F0000000000240027002A002C
:1000A00000000000230026002900000000002500B9
:1000B00028002B00040404040404040402020202C5
:1000C000020203030303030301020408102040801B
:1000D000010204081020010204081020000000089A
:1000E00000020100000304070000000000000000FF
:1000F000380511241FBECFEFD8E0DEBFCDBF11E021
:10010000A0E0B1E0E6EFF0E102C005900D92A2316F
:10011000B107D9F721E0A2E1B1E001C01D92A83BEF
:10012000B207E1F710E0C9E7D0E004C02197FE0173
:100130000E946E08C837D107C9F70E9447030C9484
:1001400079080C940000833081F028F4813099F014
:100150008230A1F008958730A9F08830B9F084305A
:10016000D1F4809180008F7D03C0809180008F77D3
:1001700080938000089584B58F7702C084B58F7D09
:1001800084BD08958091B0008F7703C08091B00046
:100190008F7D8093B0000895CF93DF93282F30E0B8
:1001A000F901E452FF4F8491F901E853FF4FD491D4
:1001B000F901EC54FF4FC491CC2389F081110E94C6
:1001C000A300EC2FF0E0EE0FFF1FE655FF4FA591C7
:1001D000B4918FB7F894EC91ED2BEC938FBFDF9136
:1001E000CF910895CF93DF93282F30E0F901E452A7
:1001F000FF4F8491F901E853FF4FD491F901EC547A
:10020000FF4FC491CC2391F081110E94A300EC2FE9
:10021000F0E0EE0FFF1FE056FF4FA591B491EC9177
:10022000ED2381E090E021F480E002C080E090E0E6
:10023000DF91CF910895CF93DF9390E0FC01E853D5
:10024000FF4F2491FC01EC54FF4F8491882361F10E
:1002500090E0880F991FFC01EA56FF4FC591D49199
:10026000FC01E655FF4FA591B491611109C09FB7FC
:10027000F8948881209582238883EC912E230BC0EB
:10028000623061F49FB7F8948881322F30958323D0
:100290008883EC912E2B2C939FBF06C08FB7F894C8
:1002A000E8812E2B28838FBFDF91CF9108958E3068
:1002B00008F08E508770806480937C0080917A0073
:1002C000806480937A0080917A0086FDFCCF8091D3
:1002D00078002091790090E0922B08953FB7F89430
:1002E0008091B4019091B501A091B601B091B70190
:1002F00026B5A89B05C02F3F19F00196A11DB11D81
:100300003FBFBA2FA92F982F8827820F911DA11DBB
:10031000B11DBC01CD0142E0660F771F881F991FF8
:100320004A95D1F70895CF92DF92EF92FF920F9303
:100330001F93CF93DF936C017A018B01C0E0D0E073
:10034000CE15DF0581F0D8016D918D01D601ED91BB
:10035000FC910190F081E02DC6010995892B11F0E7
:100360002196EECF7E01C701DF91CF911F910F91B2
:10037000FF90EF90DF90CF900895089580E090E097
:100380000895FC01538D448D252F30E0842F90E09B
:10039000821B930B541710F0CF9608950197089580
:1003A000FC01918D828D981761F0828DDF01A80F7D
:1003B000B11D5D968C91928D9F5F9F73928F90E09F
:1003C00008958FEF9FEF0895FC01918D828D98170E
:1003D00031F0828DE80FF11D858D90E008958FEF4B
:1003E0009FEF0895FC01918D228D892F90E0805C14
:1003F0009F4F821B91098F739927089582E191E0A5
:100400000E94F20121E0892B09F420E0822F089557
:10041000FC01848DDF01A80FB11DA35ABF4F2C91A1
:10042000848D90E001968F739927848FA689B78970
:100430002C93A089B1898C91837080648C93938D67
:10044000848D981306C00288F389E02D80818F7D0A
:1004500080830895EF92FF920F931F93CF93DF93C2
:10046000EC0181E0888F9B8D8C8D981305C0E88905
:10047000F989808185FD26C0F62E0B8D10E00F5F77
:100480001F4F0F731127E02E8C8DE8120CC00FB692
:1004900007FCFACFE889F989808185FFF5CFCE0185
:1004A0000E940802F1CF8B8DFE01E80FF11DE35A87
:1004B000FF4FF0829FB7F8940B8FEA89FB89808108
:1004C00080620AC09FB7F894EE89FF896083E8894B
:1004D000F98980818370806480839FBF81E090E090
:1004E000DF91CF911F910F91FF90EF900895CF93DF
:1004F000DF93EC01888D8823C9F0EA89FB8980812C
:1005000085FD05C0A889B9898C9186FD0FC00FB6FD
:1005100007FCF5CF808185FFF2CFA889B9898C913E
:1005200085FFEDCFCE010E940802E7CFDF91CF918A
:10053000089580E090E0892B29F00E94FE0181114E
:100540000C94000008950E9474081F920F920FB639
:100550000F9211242F933F938F939F93AF93BF9349
:100560008091B0019091B101A091B201B091B3011D
:100570003091AF0123E0230F2D3720F40196A11D08
:10058000B11D05C026E8230F0296A11DB11D2093C1
:10059000AF018093B0019093B101A093B201B093E9
:1005A000B3018091B4019091B501A091B601B091D1
:1005B000B7010196A11DB11D8093B4019093B501BF
:1005C000A093B601B093B701BF91AF919F918F9166
:1005D0003F912F910F900FBE0F901F9018951F9273
:1005E0000F920FB60F9211242F933F934F935F9367
:1005F0006F937F938F939F93AF93BF93EF93FF93EB
:1006000082E191E00E940802FF91EF91BF91AF91CA
:100610009F918F917F916F915F914F913F912F911A
:100620000F900FBE0F901F9018951F920F920FB64C
:100630000F9211242F938F939F93EF93FF93E09149
:100640002201F09123018081E0912801F09129019C
:1006500082FD12C0908180912B018F5F8F7320915A
:100660002C01821751F0E0912B01F0E0EE5EFE4F7D
:10067000958F80932B0101C08081FF91EF919F9115
:100680008F912F910F900FBE0F901F901895CF93C1
:10069000DF93CDB7DEB728970FB6F894DEBF0FBE55
:1006A000CDBF789484B5826084BD84B5816084BDFB
:1006B00085B5826085BD85B5816085BD80916E0000
:1006C000816080936E001092810080918100826031
:1006D000809381008091810081608093810080916E
:1006E00080008160809380008091B100846080935D
:1006F000B1008091B00081608093B00080917A0059
:10070000846080937A0080917A00826080937A007E
:1007100080917A00816080937A0080917A0080686D
:1007200080937A001092C100E0912201F0912301A0
:1007300082E08083E0911E01F0911F011082E09120
:100740002001F091210180E1808310922A01E09143
:100750002601F091270186E08083E0912401F09149
:100760002501808180618083E0912401F091250141
:10077000808188608083E0912401F091250180814F
:1007800080688083E0912401F091250180818F7D34
:10079000808361E082E00E941B0161E083E00E94AF
:1007A0001B0182E00E94CC0083E00E94CC0062E04A
:1007B0008BE00E941B0162E08CE00E941B0160E064
:1007C0008EE00E941B0160E08FE00E941B0160E050
:1007D00080E10E941B0160E081E10E941B018EE02C
:1007E0000E945701BC01990F880B990B0E94E706E4
:1007F00020E030E040E05BE30E94A20720E030E030
:1008000040E85FE30E9465052B013C018FE00E94F8
:100810005701BC01990F880B990B0E94E70620E055
:1008200030E040E05BE30E94A20720E030E040E8D7
:100830005FE30E9465054B015C0180E10E94570166
:10084000BC01990F880B990B0E94E70620E030E06D
:1008500040E05BE30E94A20720E030E040E85FE375
:100860000E9465056B017C0181E10E945701BC017A
:10087000990F880B990B0E94E70620E030E040E0DA
:100880005BE30E94A20720E030E040E85FE30E94C3
:10089000650569837A838B839C83A50194015058F5
:1008A000C301B20190580E94E5056D837E838F835A
:1008B0009887A3019201C301B2010E94A2072B01F4
:1008C0003C01A5019401C501B4010E94A2079B014E
:1008D000AC01C301B2010E9466050E9415082B01FC
:1008E0003C0129813A814B815C815058C701B60196
:1008F00090580E94E5054B015C01A7019601C701D4
:10090000B6010E94A2076B017C0129813A814B81CB
:100910005C81CA01B9010E94A2079B01AC01C70119
:10092000B6010E9466050E9415086B017C0165E511
:1009300082E191E00E942A0265E582E191E00E9455
:100940002A0220EE3EE245E652E46D817E818F81EF
:1009500098850E94A20720E030E044E353E40E941F
:10096000660523E333E343E35FE30E94A2070E94AB
:10097000B60682E191E00E942A0220EE3EE245E6C0
:1009800052E4C501B4010E94A20720E030E044E334
:1009900053E40E94660523E333E343E35FE30E94ED
:1009A000A2070E94B60682E191E00E942A0221EE8F
:1009B0003AE744EB5FE3C301B2010E94440620E042
:1009C00030E048EC52E40E94A2070E94B60682E1A1
:1009D00091E00E942A0221EE3AE744EB5FE3C7016F
:1009E000B6010E94440620E030E048EC52E40E9448
:1009F000A2070E94B60682E191E00E942A028BE0E3
:100A00000E94F200682F82E191E00E942A028CE0AD
:100A10000E94F200682F82E191E00E942A020E9467
:100A20006E014B015C0182E0C82ED12CE12CF12C2F
:100A30000E946E01DC01CB0188199909AA09BB0942
:100A4000883E9340A105B10598F321E0C21AD10870
:100A5000E108F10888EE880E83E0981EA11CB11C05
:100A6000C114D104E104F10419F70E949902B7CE30
:100A7000E2E1F1E01382128288EE93E0A0E0B0E0C0
:100A800084839583A683B78384E091E091838083F8
:100A900085EC90E09587848784EC90E09787868743
:100AA00080EC90E0918B808B81EC90E0938B828B3B
:100AB00082EC90E0958B848B86EC90E0978B868B14
:100AC000118E128E138E148E08955058BB27AA27AC
:100AD0000E947D050C9460070E94520738F00E9426
:100AE000590720F039F49F3F19F426F40C94280795
:100AF0000EF4E095E7FB0C942207E92F0E947107A2
:100B000058F3BA17620773078407950720F079F442
:100B1000A6F50C9493070EF4E0950B2EBA2FA02D9A
:100B20000B01B90190010C01CA01A0011124FF279A
:100B3000591B99F0593F50F4503E68F11A16F04095
:100B4000A22F232F342F4427585FF3CF4695379594
:100B50002795A795F0405395C9F77EF41F16BA0B59
:100B6000620B730B840BBAF09150A1F0FF0FBB1F07
:100B7000661F771F881FC2F70EC0BA0F621F731F50
:100B8000841F48F4879577956795B795F7959E3FAD
:100B900008F0B0CF9395880F08F09927EE0F97953E
:100BA000879508950E94520760F080E891E009F46B
:100BB0009EEF0E94590728F040E851E071F45EEF83
:100BC0000CC00C9428070C949307E92FE0780E943E
:100BD000710740F3092E052AB1F326173707480796
:100BE000590738F00E2E07F8E02569F0E025E0649B
:100BF0000AC0EF6307F8009407FADB01B9019D0111
:100C0000DC01CA01AD01EF930E945B060E94600700
:100C10000E9415065F91552339F02BED3FE049E422
:100C200050FD49EC0C9466050895DF93DD27B92F3C
:100C3000BF7740E85FE31616170648075B0718F40E
:100C4000D92F0E949A079F938F937F936F930E944F
:100C50005508E8E6F0E00E942B070E9460072F91FC
:100C60003F914F915F910E94B507DD2351F090585D
:100C7000A2EA2AED3FE049EC5FE3D0785D270E94CD
:100C80007D05DF910C9460070E9458060C94600764
:100C90000E94590758F00E94520740F029F45F3F24
:100CA00029F00C94220751110C9494070C942807F6
:100CB0000E94710768F39923B1F3552391F3951BB3
:100CC000550BBB27AA2762177307840738F09F5F6D
:100CD0005F4F220F331F441FAA1FA9F335D00E2EDA
:100CE0003AF0E0E832D091505040E695001CCAF747
:100CF0002BD0FE2F29D0660F771F881FBB1F26170A
:100D000037074807AB07B0E809F0BB0B802DBF01E0
:100D1000FF2793585F4F3AF09E3F510578F00C94AF
:100D200022070C9494075F3FE4F3983ED4F3869532
:100D300077956795B795F7959F5FC9F7880F911DD0
:100D40009695879597F90895E1E0660F771F881FBC
:100D5000BB1F621773078407BA0720F0621B730B6F
:100D6000840BBA0BEE1F88F7E09508950E9479076F
:100D700088F09F5798F0B92F9927B751B0F0E1F05C
:100D8000660F771F881F991F1AF0BA95C9F714C00C
:100D9000B13091F00E949307B1E008950C9493074D
:100DA000672F782F8827B85F39F0B93FCCF3869545
:100DB00077956795B395D9F73EF4909580957095A2
:100DC00061957F4F8F4F9F4F0895E89409C097FB1F
:100DD0003EF490958095709561957F4F8F4F9F4F12
:100DE0009923A9F0F92F96E9BB279395F695879556
:100DF00077956795B795F111F8CFFAF4BB0F11F419
:100E000060FF1BC06F5F7F4F8F4F9F4F16C08823BF
:100E100011F096E911C0772321F09EE8872F762FF5
:100E200005C0662371F096E8862F70E060E02AF036
:100E30009A95660F771F881FDAF7880F9695879522
:100E400097F9089597F99F6780E870E060E008954A
:100E50009FEF80EC0895DF93CF931F930F93FF9242
:100E6000EF92DF927B018C01689406C0DA2EEF01CD
:100E70000E94B507FE01E894A59125913591459111
:100E80005591A6F3EF010E947D05FE019701A8018F
:100E9000DA9469F7DF90EF90FF900F911F91CF9157
:100EA000DF91089500240A941616170618060906FD
:100EB000089500240A9412161306140605060895D0
:100EC000092E0394000C11F4882352F0BB0F40F458
:100ED000BF2B11F460FF04C06F5F7F4F8F4F9F4F98
:100EE000089557FD9058440F551F59F05F3F71F01A
:100EF0004795880F97FB991F61F09F3F79F0879581
:100F00000895121613061406551FF2CF4695F1DF09
:100F100008C0161617061806991FF1CF8695710599
:100F2000610508940895E894BB2766277727CB01CD
:100F300097F908959B01AC0160E070E080E89FE3C1
:100F40000C9444060E94B5070C9460070E94520757
:100F500038F00E94590720F0952311F00C942207D5
:100F60000C94280711240C9494070E94710770F3C5
:100F7000959FC1F3950F50E0551F629FF001729F3E
:100F8000BB27F00DB11D639FAA27F00DB11DAA1F4D
:100F9000649F6627B00DA11D661F829F2227B00D9A
:100FA000A11D621F739FB00DA11D621F839FA00D25
:100FB000611D221F749F3327A00D611D231F849F75
:100FC000600D211D822F762F6A2F11249F575040CC
:100FD0009AF0F1F088234AF0EE0FFF1FBB1F661F47
:100FE000771F881F91505040A9F79E3F510580F010
:100FF0000C9422070C9494075F3FE4F3983ED4F3DB
:10100000869577956795B795F795E7959F5FC1F7B3
:10101000FE2B880F911D9695879597F9089519F4E1
:1010200016F40C9428070C9459080E947907B8F319
:101030009923C9F3B6F39F57550B87FF0E946708A2
:101040000024A0E640EA900180585695979528F430
:10105000805C660F771F881F20F026173707480728
:1010600030F4621B730B840B202931294A2BA6957F
:1010700017940794202531254A2758F7660F771FC4
:10108000881F20F026173707480730F4620B730BD0
:10109000840B200D311D411DA09581F7B901842FCE
:1010A0009158880F9695879508959B01AC010C94F3
:1010B000A2079F3F31F0915020F48795779567956F
:1010C000B795880F911D9695879597F9089591503A
:1010D0005040660F771F881FD2F70895EE0FFF1F4D
:1010E0000590F491E02D099481E090E0F8940C943F
:0610F0007908F894FFCF1F
:1010F600000000002A029301C1017702F201D0012B
:02110600E40102
:00000001FF
